{
  "contractName": "exampleERC721",
  "abi": [
    {
      "constant": false,
      "inputs": [
        {
          "name": "_to",
          "type": "address"
        },
        {
          "name": "_tokenId",
          "type": "uint256"
        }
      ],
      "name": "approve",
      "outputs": [],
      "payable": false,
      "stateMutability": "nonpayable",
      "type": "function"
    },
    {
      "constant": true,
      "inputs": [],
      "name": "totalSupply",
      "outputs": [
        {
          "name": "",
          "type": "uint256"
        }
      ],
      "payable": false,
      "stateMutability": "view",
      "type": "function"
    },
    {
      "constant": true,
      "inputs": [
        {
          "name": "_tokenId",
          "type": "uint256"
        }
      ],
      "name": "approvedFor",
      "outputs": [
        {
          "name": "",
          "type": "address"
        }
      ],
      "payable": false,
      "stateMutability": "view",
      "type": "function"
    },
    {
      "constant": true,
      "inputs": [
        {
          "name": "_owner",
          "type": "address"
        }
      ],
      "name": "tokensOf",
      "outputs": [
        {
          "name": "",
          "type": "uint256[]"
        }
      ],
      "payable": false,
      "stateMutability": "view",
      "type": "function"
    },
    {
      "constant": true,
      "inputs": [
        {
          "name": "_tokenId",
          "type": "uint256"
        }
      ],
      "name": "ownerOf",
      "outputs": [
        {
          "name": "",
          "type": "address"
        }
      ],
      "payable": false,
      "stateMutability": "view",
      "type": "function"
    },
    {
      "constant": true,
      "inputs": [
        {
          "name": "_owner",
          "type": "address"
        }
      ],
      "name": "balanceOf",
      "outputs": [
        {
          "name": "",
          "type": "uint256"
        }
      ],
      "payable": false,
      "stateMutability": "view",
      "type": "function"
    },
    {
      "constant": false,
      "inputs": [
        {
          "name": "_to",
          "type": "address"
        },
        {
          "name": "_tokenId",
          "type": "uint256"
        }
      ],
      "name": "transfer",
      "outputs": [],
      "payable": false,
      "stateMutability": "nonpayable",
      "type": "function"
    },
    {
      "constant": false,
      "inputs": [
        {
          "name": "_tokenId",
          "type": "uint256"
        }
      ],
      "name": "takeOwnership",
      "outputs": [],
      "payable": false,
      "stateMutability": "nonpayable",
      "type": "function"
    },
    {
      "inputs": [],
      "payable": false,
      "stateMutability": "nonpayable",
      "type": "constructor"
    },
    {
      "anonymous": false,
      "inputs": [
        {
          "indexed": false,
          "name": "donor",
          "type": "address"
        }
      ],
      "name": "Donated",
      "type": "event"
    },
    {
      "anonymous": false,
      "inputs": [
        {
          "indexed": true,
          "name": "_from",
          "type": "address"
        },
        {
          "indexed": true,
          "name": "_to",
          "type": "address"
        },
        {
          "indexed": false,
          "name": "_tokenId",
          "type": "uint256"
        }
      ],
      "name": "Transfer",
      "type": "event"
    },
    {
      "anonymous": false,
      "inputs": [
        {
          "indexed": true,
          "name": "_owner",
          "type": "address"
        },
        {
          "indexed": true,
          "name": "_approved",
          "type": "address"
        },
        {
          "indexed": false,
          "name": "_tokenId",
          "type": "uint256"
        }
      ],
      "name": "Approval",
      "type": "event"
    },
    {
      "constant": false,
      "inputs": [],
      "name": "getCreatorAddress",
      "outputs": [
        {
          "name": "",
          "type": "address"
        }
      ],
      "payable": false,
      "stateMutability": "nonpayable",
      "type": "function"
    },
    {
      "constant": false,
      "inputs": [],
      "name": "getCreatorName",
      "outputs": [
        {
          "name": "",
          "type": "string"
        }
      ],
      "payable": false,
      "stateMutability": "nonpayable",
      "type": "function"
    },
    {
      "constant": false,
      "inputs": [],
      "name": "getCreatorBio",
      "outputs": [
        {
          "name": "",
          "type": "string"
        }
      ],
      "payable": false,
      "stateMutability": "nonpayable",
      "type": "function"
    },
    {
      "constant": false,
      "inputs": [],
      "name": "mint",
      "outputs": [],
      "payable": true,
      "stateMutability": "payable",
      "type": "function"
    },
    {
      "constant": true,
      "inputs": [
        {
          "name": "_tokenId",
          "type": "uint256"
        }
      ],
      "name": "tokenMetadata",
      "outputs": [
        {
          "name": "",
          "type": "string"
        }
      ],
      "payable": false,
      "stateMutability": "view",
      "type": "function"
    }
  ],
  "bytecode": "0x60606040526000600560146101000a81548160ff021916908315150217905550341561002a57600080fd5b33600560006101000a81548173ffffffffffffffffffffffffffffffffffffffff021916908373ffffffffffffffffffffffffffffffffffffffff1602179055506114178061007a6000396000f3006060604052600436106100c5576000357c0100000000000000000000000000000000000000000000000000000000900463ffffffff168063095ea7b3146100ca5780631249c58b1461010c57806318160ddd146101165780632490c1de1461013f5780632a6dd48f146101cd5780635a3f2672146102305780636352211e146102be5780636914db601461032157806370a08231146103bd5780637a51c3cd1461040a57806394d2d7a714610498578063a9059cbb146104ed578063b2e6ceeb1461052f575b600080fd5b34156100d557600080fd5b61010a600480803573ffffffffffffffffffffffffffffffffffffffff16906020019091908035906020019091905050610552565b005b6101146106e5565b005b341561012157600080fd5b610129610806565b6040518082815260200191505060405180910390f35b341561014a57600080fd5b61015261080f565b6040518080602001828103825283818151815260200191508051906020019080838360005b83811015610192578082015181840152602081019050610177565b50505050905090810190601f1680156101bf5780820380516001836020036101000a031916815260200191505b509250505060405180910390f35b34156101d857600080fd5b6101ee6004808035906020019091905050610839565b604051808273ffffffffffffffffffffffffffffffffffffffff1673ffffffffffffffffffffffffffffffffffffffff16815260200191505060405180910390f35b341561023b57600080fd5b610267600480803573ffffffffffffffffffffffffffffffffffffffff16906020019091905050610876565b6040518080602001828103825283818151815260200191508051906020019060200280838360005b838110156102aa57808201518184015260208101905061028f565b505050509050019250505060405180910390f35b34156102c957600080fd5b6102df6004808035906020019091905050610913565b604051808273ffffffffffffffffffffffffffffffffffffffff1673ffffffffffffffffffffffffffffffffffffffff16815260200191505060405180910390f35b341561032c57600080fd5b6103426004808035906020019091905050610991565b6040518080602001828103825283818151815260200191508051906020019080838360005b83811015610382578082015181840152602081019050610367565b50505050905090810190601f1680156103af5780820380516001836020036101000a031916815260200191505b509250505060405180910390f35b34156103c857600080fd5b6103f4600480803573ffffffffffffffffffffffffffffffffffffffff169060200190919050506109d6565b6040518082815260200191505060405180910390f35b341561041557600080fd5b61041d610a22565b6040518080602001828103825283818151815260200191508051906020019080838360005b8381101561045d578082015181840152602081019050610442565b50505050905090810190601f16801561048a5780820380516001836020036101000a031916815260200191505b509250505060405180910390f35b34156104a357600080fd5b6104ab610a65565b604051808273ffffffffffffffffffffffffffffffffffffffff1673ffffffffffffffffffffffffffffffffffffffff16815260200191505060405180910390f35b34156104f857600080fd5b61052d600480803573ffffffffffffffffffffffffffffffffffffffff16906020019091908035906020019091905050610a8f565b005b341561053a57600080fd5b6105506004808035906020019091905050610ae2565b005b6000813373ffffffffffffffffffffffffffffffffffffffff1661057582610913565b73ffffffffffffffffffffffffffffffffffffffff1614151561059757600080fd5b6105a083610913565b91508173ffffffffffffffffffffffffffffffffffffffff168473ffffffffffffffffffffffffffffffffffffffff16141515156105dd57600080fd5b60006105e884610839565b73ffffffffffffffffffffffffffffffffffffffff16141580610622575060008473ffffffffffffffffffffffffffffffffffffffff1614155b156106df57836002600085815260200190815260200160002060006101000a81548173ffffffffffffffffffffffffffffffffffffffff021916908373ffffffffffffffffffffffffffffffffffffffff1602179055508373ffffffffffffffffffffffffffffffffffffffff168273ffffffffffffffffffffffffffffffffffffffff167f8c5be1e5ebec7d5bd14f71427d1e84f3dd0314c0f7b2291e5b200ac8c7c3b925856040518082815260200191505060405180910390a35b50505050565b600560149054906101000a900460ff1615151561070157600080fd5b6802b5e3af16b1880000341015151561071957600080fd5b610724336000610b0d565b600560009054906101000a900473ffffffffffffffffffffffffffffffffffffffff1673ffffffffffffffffffffffffffffffffffffffff166108fc349081150290604051600060405180830381858888f19350505050151561078657600080fd5b7fcfa00a08822b6229f7f7b6756172e046099f46a53f39da101f0f65cd8f9832c933604051808273ffffffffffffffffffffffffffffffffffffffff1673ffffffffffffffffffffffffffffffffffffffff16815260200191505060405180910390a16001600560146101000a81548160ff021916908315150217905550565b60008054905090565b610817611244565b6101406040519081016040528061010281526020016112ea6101029139905090565b60006002600083815260200190815260200160002060009054906101000a900473ffffffffffffffffffffffffffffffffffffffff169050919050565b61087e611258565b600360008373ffffffffffffffffffffffffffffffffffffffff1673ffffffffffffffffffffffffffffffffffffffff16815260200190815260200160002080548060200260200160405190810160405280929190818152602001828054801561090757602002820191906000526020600020905b8154815260200190600101908083116108f3575b50505050509050919050565b6000806001600084815260200190815260200160002060009054906101000a900473ffffffffffffffffffffffffffffffffffffffff169050600073ffffffffffffffffffffffffffffffffffffffff168173ffffffffffffffffffffffffffffffffffffffff161415151561098857600080fd5b80915050919050565b610999611244565b6040805190810160405280600f81526020017f74657374497066734164647265737300000000000000000000000000000000008152509050919050565b6000600360008373ffffffffffffffffffffffffffffffffffffffff1673ffffffffffffffffffffffffffffffffffffffff168152602001908152602001600020805490509050919050565b610a2a611244565b6040805190810160405280600981526020017f42696c6c79204c61750000000000000000000000000000000000000000000000815250905090565b6000600560009054906101000a900473ffffffffffffffffffffffffffffffffffffffff16905090565b803373ffffffffffffffffffffffffffffffffffffffff16610ab082610913565b73ffffffffffffffffffffffffffffffffffffffff16141515610ad257600080fd5b610add338484610ba7565b505050565b610aec3382610cf0565b1515610af757600080fd5b610b0a610b0382610913565b3383610ba7565b50565b600073ffffffffffffffffffffffffffffffffffffffff168273ffffffffffffffffffffffffffffffffffffffff1614151515610b4957600080fd5b610b538282610d31565b8173ffffffffffffffffffffffffffffffffffffffff1660007fddf252ad1be2c89b69c2b068fc378daa952ba7f163c4a11628f55a4df523b3ef836040518082815260200191505060405180910390a35050565b600073ffffffffffffffffffffffffffffffffffffffff168273ffffffffffffffffffffffffffffffffffffffff1614151515610be357600080fd5b610bec81610913565b73ffffffffffffffffffffffffffffffffffffffff168273ffffffffffffffffffffffffffffffffffffffff1614151515610c2657600080fd5b8273ffffffffffffffffffffffffffffffffffffffff16610c4682610913565b73ffffffffffffffffffffffffffffffffffffffff16141515610c6857600080fd5b610c728382610e9c565b610c7c8382610f85565b610c868282610d31565b8173ffffffffffffffffffffffffffffffffffffffff168373ffffffffffffffffffffffffffffffffffffffff167fddf252ad1be2c89b69c2b068fc378daa952ba7f163c4a11628f55a4df523b3ef836040518082815260200191505060405180910390a3505050565b60008273ffffffffffffffffffffffffffffffffffffffff16610d1283610839565b73ffffffffffffffffffffffffffffffffffffffff1614905092915050565b60008073ffffffffffffffffffffffffffffffffffffffff166001600084815260200190815260200160002060009054906101000a900473ffffffffffffffffffffffffffffffffffffffff1673ffffffffffffffffffffffffffffffffffffffff16141515610da057600080fd5b826001600084815260200190815260200160002060006101000a81548173ffffffffffffffffffffffffffffffffffffffff021916908373ffffffffffffffffffffffffffffffffffffffff160217905550610dfb836109d6565b9050600360008473ffffffffffffffffffffffffffffffffffffffff1673ffffffffffffffffffffffffffffffffffffffff1681526020019081526020016000208054806001018281610e4e919061126c565b916000526020600020900160008490919091505550806004600084815260200190815260200160002081905550610e91600160005461120d90919063ffffffff16565b600081905550505050565b8173ffffffffffffffffffffffffffffffffffffffff16610ebc82610913565b73ffffffffffffffffffffffffffffffffffffffff16141515610ede57600080fd5b60006002600083815260200190815260200160002060006101000a81548173ffffffffffffffffffffffffffffffffffffffff021916908373ffffffffffffffffffffffffffffffffffffffff16021790555060008273ffffffffffffffffffffffffffffffffffffffff167f8c5be1e5ebec7d5bd14f71427d1e84f3dd0314c0f7b2291e5b200ac8c7c3b925836040518082815260200191505060405180910390a35050565b60008060008473ffffffffffffffffffffffffffffffffffffffff16610faa85610913565b73ffffffffffffffffffffffffffffffffffffffff16141515610fcc57600080fd5b60046000858152602001908152602001600020549250610ffe6001610ff0876109d6565b61122b90919063ffffffff16565b9150600360008673ffffffffffffffffffffffffffffffffffffffff1673ffffffffffffffffffffffffffffffffffffffff1681526020019081526020016000208281548110151561104c57fe5b906000526020600020900154905060006001600086815260200190815260200160002060006101000a81548173ffffffffffffffffffffffffffffffffffffffff021916908373ffffffffffffffffffffffffffffffffffffffff16021790555080600360008773ffffffffffffffffffffffffffffffffffffffff1673ffffffffffffffffffffffffffffffffffffffff168152602001908152602001600020848154811015156110fa57fe5b9060005260206000209001819055506000600360008773ffffffffffffffffffffffffffffffffffffffff1673ffffffffffffffffffffffffffffffffffffffff1681526020019081526020016000208381548110151561115757fe5b906000526020600020900181905550600360008673ffffffffffffffffffffffffffffffffffffffff1673ffffffffffffffffffffffffffffffffffffffff1681526020019081526020016000208054809190600190036111b89190611298565b5060006004600086815260200190815260200160002081905550826004600083815260200190815260200160002081905550611200600160005461122b90919063ffffffff16565b6000819055505050505050565b600080828401905083811015151561122157fe5b8091505092915050565b600082821115151561123957fe5b818303905092915050565b602060405190810160405280600081525090565b602060405190810160405280600081525090565b8154818355818115116112935781836000526020600020918201910161129291906112c4565b5b505050565b8154818355818115116112bf578183600052602060002091820191016112be91906112c4565b5b505050565b6112e691905b808211156112e25760008160009055506001016112ca565b5090565b9056004920616d206120746869726420796561722073747564656e742061742074686520556e6976657273697479206f66204272697469736820436f6c756d6269612e20492061737069726520746f20626520612066757475726520626c6f636b636861696e20656e7472657072656e6575722e2043757272656e746c792c204920686176652073747564656e742064656274206f6620616d6f756e742024353030302e2049207769736820746f2072616973652066756e647320736f20492063616e20636f6e74696e7565206d7920656475636174696f6e207374756479696e6720626c6f636b636861696e20746563686e6f6c6f6779206174205374616e666f72642ea165627a7a723058203b7c9cf1212c98015eb15606ccc444ca33c345e73e4b87ac334b97547962a0220029",
  "source": "pragma solidity ^0.4.18;\n\nimport \"zeppelin-solidity/contracts/token/ERC721/ERC721Token.sol\";\n\n/**\n * The exampleERC721 contract does this and that...\n */\ncontract exampleERC721 is ERC721Token{\n\taddress private creator;\n\tuint256 constant private price = 50 ether;\n\tstring constant private creatorName = \"Billy Lau\";\n\tstring constant private creatorBio = \"I am a third year student at the University of British Columbia. I aspire to be a future blockchain entrepreneur. Currently, I have student debt of amount $5000. I wish to raise funds so I can continue my education studying blockchain technology at Stanford.\";\n\tbool private donateLimitReached = false;\n\n\tevent Donated(address donor);\n\t\n\t//Constructor\n\tfunction exampleERC721 () {\n\t\tcreator = msg.sender;\n\t}\t\n\n\t//Getters\n\tfunction getCreatorAddress () returns(address) {\n\t\treturn(creator);\n\t}\n\n\tfunction getCreatorName () returns(string) {\n\t\treturn(creatorName);\n\t}\n\n\tfunction getCreatorBio () returns(string) {\n\t\treturn(creatorBio);\n\t}\n\t\n\t//Mint\n\tfunction mint () public payable{\n\t\trequire(!donateLimitReached); //check if someone has already donated\n\t\trequire(msg.value >= price); //check if donation amount is greater or equal to requested amount\n\t\t_mint(msg.sender,0); //create the 0th token and send it to the donor\n\t\tcreator.transfer(msg.value); //transfer the donation ETH amount to the creator\n\t\tDonated(msg.sender); //fire an event signalling donation has been sucessful\n\t\tdonateLimitReached = true; //flag to prevent multiple donations to the same token\n\t}\n\t\n\n\n\tfunction tokenMetadata (uint256 _tokenId) constant returns(string) {\n\t\treturn(\"testIpfsAddress\");\n\t}\n\t\n\n}\n\n\n",
  "sourcePath": "/home/linkuri267/Documents/wtc/gratus/contracts/ExampleERC721.sol",
  "compiler": {
    "name": "solc",
    "version": "0.4.19+commit.c4cbbb05.Emscripten.clang"
  },
  "schemaVersion": "1.0.1",
  "updatedAt": "2018-02-17T20:42:22.675Z"
}