{
  "contractName": "main",
  "abi": [
    {
      "constant": true,
      "inputs": [
        {
          "name": "",
          "type": "uint256"
        }
      ],
      "name": "donors",
      "outputs": [
        {
          "name": "walletAddr",
          "type": "address"
        },
        {
          "name": "amountDonated",
          "type": "uint256"
        }
      ],
      "payable": false,
      "stateMutability": "view",
      "type": "function"
    },
    {
      "constant": true,
      "inputs": [],
      "name": "seedHash",
      "outputs": [
        {
          "name": "",
          "type": "bytes32"
        }
      ],
      "payable": false,
      "stateMutability": "view",
      "type": "function"
    },
    {
      "constant": true,
      "inputs": [
        {
          "name": "",
          "type": "uint256"
        }
      ],
      "name": "creators",
      "outputs": [
        {
          "name": "walletAddr",
          "type": "address"
        },
        {
          "name": "hasContract",
          "type": "bool"
        },
        {
          "name": "contractCount",
          "type": "uint256"
        }
      ],
      "payable": false,
      "stateMutability": "view",
      "type": "function"
    },
    {
      "inputs": [],
      "payable": false,
      "stateMutability": "nonpayable",
      "type": "constructor"
    },
    {
      "constant": false,
      "inputs": [],
      "name": "getTotalCreators",
      "outputs": [
        {
          "name": "",
          "type": "uint256"
        }
      ],
      "payable": false,
      "stateMutability": "nonpayable",
      "type": "function"
    },
    {
      "constant": false,
      "inputs": [
        {
          "name": "creatorAddress",
          "type": "address"
        }
      ],
      "name": "hasContract",
      "outputs": [
        {
          "name": "",
          "type": "bool"
        }
      ],
      "payable": false,
      "stateMutability": "nonpayable",
      "type": "function"
    },
    {
      "constant": false,
      "inputs": [
        {
          "name": "creatorAddress",
          "type": "address"
        }
      ],
      "name": "getContractFromCreator",
      "outputs": [
        {
          "name": "",
          "type": "address[]"
        }
      ],
      "payable": false,
      "stateMutability": "nonpayable",
      "type": "function"
    },
    {
      "constant": false,
      "inputs": [
        {
          "name": "contractAddress",
          "type": "address"
        },
        {
          "name": "ipfsHashSrc",
          "type": "string"
        },
        {
          "name": "ipfsHashAbi",
          "type": "string"
        }
      ],
      "name": "submitContract",
      "outputs": [],
      "payable": false,
      "stateMutability": "nonpayable",
      "type": "function"
    },
    {
      "constant": false,
      "inputs": [
        {
          "name": "n",
          "type": "uint256"
        }
      ],
      "name": "getRandomContractAddress",
      "outputs": [
        {
          "name": "",
          "type": "address[]"
        }
      ],
      "payable": false,
      "stateMutability": "nonpayable",
      "type": "function"
    },
    {
      "constant": false,
      "inputs": [
        {
          "name": "contractAddr",
          "type": "address"
        }
      ],
      "name": "getSourceHashFromContract",
      "outputs": [
        {
          "name": "",
          "type": "string"
        }
      ],
      "payable": false,
      "stateMutability": "nonpayable",
      "type": "function"
    },
    {
      "constant": false,
      "inputs": [
        {
          "name": "contractAddr",
          "type": "address"
        }
      ],
      "name": "getAbiHashFromContract",
      "outputs": [
        {
          "name": "",
          "type": "string"
        }
      ],
      "payable": false,
      "stateMutability": "nonpayable",
      "type": "function"
    }
  ],
  "bytecode": "0x6060604052341561000f57600080fd5b60006008819055506000600981905550600143034060078160001916905550611ab98061003d6000396000f3006060604052600436106100a4576000357c0100000000000000000000000000000000000000000000000000000000900463ffffffff1680631a9a6c95146100a95780631f3fb350146100fa57806331e8e39d146101b957806348718516146101e25780634abfa163146102705780637c0bc41d146102da578063c2b373a714610352578063cd53d08e14610383578063cf69b9a8146103f8578063ed119d71146104aa575b600080fd5b34156100b457600080fd5b6100e0600480803573ffffffffffffffffffffffffffffffffffffffff1690602001909190505061055c565b604051808215151515815260200191505060405180910390f35b341561010557600080fd5b6101b7600480803573ffffffffffffffffffffffffffffffffffffffff1690602001909190803590602001908201803590602001908080601f0160208091040260200160405190810160405280939291908181526020018383808284378201915050505050509190803590602001908201803590602001908080601f016020809104026020016040519081016040528093929190818152602001838380828437820191505050505050919050506105b5565b005b34156101c457600080fd5b6101cc61105c565b6040518082815260200191505060405180910390f35b34156101ed57600080fd5b610219600480803573ffffffffffffffffffffffffffffffffffffffff16906020019091905050611066565b6040518080602001828103825283818151815260200191508051906020019060200280838360005b8381101561025c578082015181840152602081019050610241565b505050509050019250505060405180910390f35b341561027b57600080fd5b6102916004808035906020019091905050611238565b604051808373ffffffffffffffffffffffffffffffffffffffff1673ffffffffffffffffffffffffffffffffffffffff1681526020018281526020019250505060405180910390f35b34156102e557600080fd5b6102fb600480803590602001909190505061128b565b6040518080602001828103825283818151815260200191508051906020019060200280838360005b8381101561033e578082015181840152602081019050610323565b505050509050019250505060405180910390f35b341561035d57600080fd5b610365611428565b60405180826000191660001916815260200191505060405180910390f35b341561038e57600080fd5b6103a4600480803590602001909190505061142e565b604051808473ffffffffffffffffffffffffffffffffffffffff1673ffffffffffffffffffffffffffffffffffffffff16815260200183151515158152602001828152602001935050505060405180910390f35b341561040357600080fd5b61042f600480803573ffffffffffffffffffffffffffffffffffffffff16906020019091905050611494565b6040518080602001828103825283818151815260200191508051906020019080838360005b8381101561046f578082015181840152602081019050610454565b50505050905090810190601f16801561049c5780820380516001836020036101000a031916815260200191505b509250505060405180910390f35b34156104b557600080fd5b6104e1600480803573ffffffffffffffffffffffffffffffffffffffff1690602001909190505061157b565b6040518080602001828103825283818151815260200191508051906020019080838360005b83811015610521578082015181840152602081019050610506565b50505050905090810190601f16801561054e5780820380516001836020036101000a031916815260200191505b509250505060405180910390f35b6000600260008373ffffffffffffffffffffffffffffffffffffffff1673ffffffffffffffffffffffffffffffffffffffff16815260200190815260200160002060040160009054906101000a900460ff169050919050565b6000339050600260008273ffffffffffffffffffffffffffffffffffffffff1673ffffffffffffffffffffffffffffffffffffffff16815260200190815260200160002060040160009054906101000a900460ff161515610c4a5780600260008373ffffffffffffffffffffffffffffffffffffffff1673ffffffffffffffffffffffffffffffffffffffff16815260200190815260200160002060000160006101000a81548173ffffffffffffffffffffffffffffffffffffffff021916908373ffffffffffffffffffffffffffffffffffffffff160217905550600260008273ffffffffffffffffffffffffffffffffffffffff1673ffffffffffffffffffffffffffffffffffffffff16815260200190815260200160002060010180548060010182816106e59190611662565b9160005260206000209001600086909190916101000a81548173ffffffffffffffffffffffffffffffffffffffff021916908373ffffffffffffffffffffffffffffffffffffffff16021790555050600260008273ffffffffffffffffffffffffffffffffffffffff1673ffffffffffffffffffffffffffffffffffffffff1681526020019081526020016000206002018054806001018281610788919061168e565b9160005260206000209001600085909190915090805190602001906107ae9291906116ba565b5050600260008273ffffffffffffffffffffffffffffffffffffffff1673ffffffffffffffffffffffffffffffffffffffff1681526020019081526020016000206003018054806001018281610804919061168e565b91600052602060002090016000849091909150908051906020019061082a9291906116ba565b50506001600260008373ffffffffffffffffffffffffffffffffffffffff1673ffffffffffffffffffffffffffffffffffffffff16815260200190815260200160002060040160006101000a81548160ff021916908315150217905550600260008273ffffffffffffffffffffffffffffffffffffffff1673ffffffffffffffffffffffffffffffffffffffff16815260200190815260200160002060050160008154809291906001019190505550600960008154809291906001019190505550600260008273ffffffffffffffffffffffffffffffffffffffff1673ffffffffffffffffffffffffffffffffffffffff168152602001908152602001600020600360008673ffffffffffffffffffffffffffffffffffffffff1673ffffffffffffffffffffffffffffffffffffffff1681526020019081526020016000206000820160009054906101000a900473ffffffffffffffffffffffffffffffffffffffff168160000160006101000a81548173ffffffffffffffffffffffffffffffffffffffff021916908373ffffffffffffffffffffffffffffffffffffffff16021790555060018201816001019080546109e692919061173a565b5060028201816002019080546109fd92919061178c565b506003820181600301908054610a1492919061178c565b506004820160009054906101000a900460ff168160040160006101000a81548160ff0219169083151502179055506005820154816005015590505082600660008673ffffffffffffffffffffffffffffffffffffffff1673ffffffffffffffffffffffffffffffffffffffff1681526020019081526020016000209080519060200190610aa29291906116ba565b5081600560008673ffffffffffffffffffffffffffffffffffffffff1673ffffffffffffffffffffffffffffffffffffffff1681526020019081526020016000209080519060200190610af69291906116ba565b5060008054806001018281610b0b91906117fc565b91600052602060002090600602016000600260008573ffffffffffffffffffffffffffffffffffffffff1673ffffffffffffffffffffffffffffffffffffffff16815260200190815260200160002090919091506000820160009054906101000a900473ffffffffffffffffffffffffffffffffffffffff168160000160006101000a81548173ffffffffffffffffffffffffffffffffffffffff021916908373ffffffffffffffffffffffffffffffffffffffff1602179055506001820181600101908054610bdc92919061173a565b506002820181600201908054610bf392919061178c565b506003820181600301908054610c0a92919061178c565b506004820160009054906101000a900460ff168160040160006101000a81548160ff02191690831515021790555060058201548160050155505050611044565b600260008273ffffffffffffffffffffffffffffffffffffffff1673ffffffffffffffffffffffffffffffffffffffff1681526020019081526020016000206001018054806001018281610c9e9190611662565b9160005260206000209001600086909190916101000a81548173ffffffffffffffffffffffffffffffffffffffff021916908373ffffffffffffffffffffffffffffffffffffffff16021790555050600260008273ffffffffffffffffffffffffffffffffffffffff1673ffffffffffffffffffffffffffffffffffffffff1681526020019081526020016000206002018054806001018281610d41919061168e565b916000526020600020900160008590919091509080519060200190610d679291906116ba565b5050600260008273ffffffffffffffffffffffffffffffffffffffff1673ffffffffffffffffffffffffffffffffffffffff1681526020019081526020016000206003018054806001018281610dbd919061168e565b916000526020600020900160008490919091509080519060200190610de39291906116ba565b5050600260008273ffffffffffffffffffffffffffffffffffffffff1673ffffffffffffffffffffffffffffffffffffffff16815260200190815260200160002060050160008154809291906001019190505550600260008273ffffffffffffffffffffffffffffffffffffffff1673ffffffffffffffffffffffffffffffffffffffff168152602001908152602001600020600360008673ffffffffffffffffffffffffffffffffffffffff1673ffffffffffffffffffffffffffffffffffffffff1681526020019081526020016000206000820160009054906101000a900473ffffffffffffffffffffffffffffffffffffffff168160000160006101000a81548173ffffffffffffffffffffffffffffffffffffffff021916908373ffffffffffffffffffffffffffffffffffffffff1602179055506001820181600101908054610f3292919061173a565b506002820181600201908054610f4992919061178c565b506003820181600301908054610f6092919061178c565b506004820160009054906101000a900460ff168160040160006101000a81548160ff0219169083151502179055506005820154816005015590505082600660008673ffffffffffffffffffffffffffffffffffffffff1673ffffffffffffffffffffffffffffffffffffffff1681526020019081526020016000209080519060200190610fee9291906116ba565b5081600560008673ffffffffffffffffffffffffffffffffffffffff1673ffffffffffffffffffffffffffffffffffffffff16815260200190815260200160002090805190602001906110429291906116ba565b505b60086000815480929190600101919050555050505050565b6000600954905090565b61106e61182e565b600080600090505b600260008573ffffffffffffffffffffffffffffffffffffffff1673ffffffffffffffffffffffffffffffffffffffff168152602001908152602001600020600501548110156111a9578180548060010182816110d39190611662565b91600052602060002090016000600260008873ffffffffffffffffffffffffffffffffffffffff1673ffffffffffffffffffffffffffffffffffffffff1681526020019081526020016000206001018481548110151561112f57fe5b906000526020600020900160009054906101000a900473ffffffffffffffffffffffffffffffffffffffff16909190916101000a81548173ffffffffffffffffffffffffffffffffffffffff021916908373ffffffffffffffffffffffffffffffffffffffff160217905550508080600101915050611076565b8180548060200260200160405190810160405280929190818152602001828054801561122a57602002820191906000526020600020905b8160009054906101000a900473ffffffffffffffffffffffffffffffffffffffff1673ffffffffffffffffffffffffffffffffffffffff16815260200190600101908083116111e0575b505050505092505050919050565b60018181548110151561124757fe5b90600052602060002090600202016000915090508060000160009054906101000a900473ffffffffffffffffffffffffffffffffffffffff16908060010154905082565b61129361182e565b6000806000806000806000809550889650600090505b86811015611394576000818154811015156112c057fe5b906000526020600020906006020191508160040160009054906101000a900460ff1615611387578280548060010182816112fa9190611662565b9160005260206000209001600084600101600081548110151561131957fe5b906000526020600020900160009054906101000a900473ffffffffffffffffffffffffffffffffffffffff16909190916101000a81548173ffffffffffffffffffffffffffffffffffffffff021916908373ffffffffffffffffffffffffffffffffffffffff160217905550505b80806001019150506112a9565b8280548060200260200160405190810160405280929190818152602001828054801561141557602002820191906000526020600020905b8160009054906101000a900473ffffffffffffffffffffffffffffffffffffffff1673ffffffffffffffffffffffffffffffffffffffff16815260200190600101908083116113cb575b5050505050975050505050505050919050565b60075481565b60008181548110151561143d57fe5b90600052602060002090600602016000915090508060000160009054906101000a900473ffffffffffffffffffffffffffffffffffffffff16908060040160009054906101000a900460ff16908060050154905083565b61149c611842565b600660008373ffffffffffffffffffffffffffffffffffffffff1673ffffffffffffffffffffffffffffffffffffffff1681526020019081526020016000208054600181600116156101000203166002900480601f01602080910402602001604051908101604052809291908181526020018280546001816001161561010002031660029004801561156f5780601f106115445761010080835404028352916020019161156f565b820191906000526020600020905b81548152906001019060200180831161155257829003601f168201915b50505050509050919050565b611583611842565b600560008373ffffffffffffffffffffffffffffffffffffffff1673ffffffffffffffffffffffffffffffffffffffff1681526020019081526020016000208054600181600116156101000203166002900480601f0160208091040260200160405190810160405280929190818152602001828054600181600116156101000203166002900480156116565780601f1061162b57610100808354040283529160200191611656565b820191906000526020600020905b81548152906001019060200180831161163957829003601f168201915b50505050509050919050565b815481835581811511611689578183600052602060002091820191016116889190611856565b5b505050565b8154818355818115116116b5578183600052602060002091820191016116b4919061187b565b5b505050565b828054600181600116156101000203166002900490600052602060002090601f016020900481019282601f106116fb57805160ff1916838001178555611729565b82800160010185558215611729579182015b8281111561172857825182559160200191906001019061170d565b5b5090506117369190611856565b5090565b82805482825590600052602060002090810192821561177b5760005260206000209182015b8281111561177a57825482559160010191906001019061175f565b5b50905061178891906118a7565b5090565b8280548282559060005260206000209081019282156117eb5760005260206000209182015b828111156117ea57828290805460018160011615610100020316600290046117da9291906118ea565b50916001019190600101906117b1565b5b5090506117f8919061187b565b5090565b815481835581811511611829576006028160060283600052602060002091820191016118289190611971565b5b505050565b602060405190810160405280600081525090565b602060405190810160405280600081525090565b61187891905b8082111561187457600081600090555060010161185c565b5090565b90565b6118a491905b808211156118a057600081816118979190611a03565b50600101611881565b5090565b90565b6118e791905b808211156118e357600081816101000a81549073ffffffffffffffffffffffffffffffffffffffff0219169055506001016118ad565b5090565b90565b828054600181600116156101000203166002900490600052602060002090601f016020900481019282601f106119235780548555611960565b8280016001018555821561196057600052602060002091601f016020900482015b8281111561195f578254825591600101919060010190611944565b5b50905061196d9190611856565b5090565b611a0091905b808211156119fc57600080820160006101000a81549073ffffffffffffffffffffffffffffffffffffffff02191690556001820160006119b79190611a4b565b6002820160006119c79190611a6c565b6003820160006119d79190611a6c565b6004820160006101000a81549060ff0219169055600582016000905550600601611977565b5090565b90565b50805460018160011615610100020316600290046000825580601f10611a295750611a48565b601f016020900490600052602060002090810190611a479190611856565b5b50565b5080546000825590600052602060002090810190611a699190611856565b50565b5080546000825590600052602060002090810190611a8a919061187b565b505600a165627a7a7230582024d155b8e1fb233f55c8c7d809cd3194ff7f45ce961c80afdbea560d1e745cbf0029",
  "source": "pragma solidity ^0.4.17;\n\n/**\n * The main contract does this and that...\n */\ncontract main {\n\n\tstruct Creator{\n\t\taddress walletAddr;\n\t\taddress[] contractAddr; //Addresses of contracts created by this creator\n\t\tstring[] src; //IPFS addresses for contract source codes\n\t\tstring[] abi;\n\t\tbool hasContract;\n\t\tuint256 contractCount; //Number of contracts created by this creator\n\t}\n\n\tstruct Donor {\n\t\taddress walletAddr;\n\t\tuint amountDonated;\n\t}\n\n\tCreator[] public creators; //array of all creators \n\tDonor[] public donors; //array of all donors\n\t\n\n\tmapping (address => Creator) creatorAddressToCreator;\n\tmapping (address => Creator) contractAddressToCreator;\n\n\tmapping (address => bool) creatorAddressToIncludedFlag; //Flags for preventing duplicate random addresses \n\n\tmapping (address => string) contractAddressToAbi;\n\tmapping (address => string) contractAddressToSrc;\n\t\n\t\n\t\n\t// mapping (address => address) private creatorToContract;\n\t// mapping (address => string) private creatorToSrc;\n\t\n\t// mapping (address => string) private creatorToName;\n\t// mapping (address => string) private creatorToBio;\n\t// mapping (address => string) private creatorToDisplayImage;\n\n\t//mapping (address => uint256) private donorToDonated;\t\n\n\tbytes32 public seedHash;\n\tuint256 private totalContracts;\n\tuint256 private totalCreators;\n\n\tstring private theme; //theme of the month\n\t\n\tfunction main () {\n\t\ttotalContracts = 0;\n\t\ttotalCreators = 0;\n\t\tseedHash = block.blockhash(block.number-1);\t\n\t}\n\n\tfunction getTotalCreators () returns(uint256) {\n\t\treturn(totalCreators);\n\t}\n\t\n\tfunction hasContract (address creatorAddress) returns(bool) {\n\t\treturn(creatorAddressToCreator[creatorAddress].hasContract);\n\t}\n\t\n\n\t//Returns an array of contract addresses submitted by the creator. Takes the creator address as input.\n\tfunction getContractFromCreator (address creatorAddress) returns(address[]) {\n\t\taddress[] contractAddresses;\n\t\t//require((creatorAddressToCreator[creatorAddress]).hasContract);\n\t\tfor(uint i = 0; i < (creatorAddressToCreator[creatorAddress]).contractCount; i++){\n\t\t\tcontractAddresses.push((creatorAddressToCreator[creatorAddress]).contractAddr[i]);\n\t\t}\n\t\treturn(contractAddresses);\t\n\t}\n\n\t//Creators will use this function to submit their contracts. Will exit if the contract creator field is not the message sender\n\t//Sender is the creator in this case\n\t//Input is user contract address he/she wishes to submit and the IPFS hash of the uploaded source code of that contract\n\tfunction submitContract (address contractAddress, string ipfsHashSrc, string ipfsHashAbi) {\n\t\taddress creatorAddress = msg.sender;\n\n\t\tif(!(creatorAddressToCreator[creatorAddress].hasContract)){\n\t\t\t(creatorAddressToCreator[creatorAddress]).walletAddr = creatorAddress;\n\t\t\t(creatorAddressToCreator[creatorAddress]).contractAddr.push(contractAddress);\n\t\t\t(creatorAddressToCreator[creatorAddress]).src.push(ipfsHashSrc);\n\t\t\t(creatorAddressToCreator[creatorAddress]).abi.push(ipfsHashAbi);\n\t\t\t(creatorAddressToCreator[creatorAddress]).hasContract = true;\n\t\t\t(creatorAddressToCreator[creatorAddress]).contractCount ++;\n\t\t\ttotalCreators ++;\n\t\t\tcontractAddressToCreator[contractAddress] = creatorAddressToCreator[creatorAddress];\n\t\t\tcontractAddressToSrc[contractAddress] = ipfsHashSrc;\n\t\t\tcontractAddressToAbi[contractAddress] = ipfsHashAbi;\n\t\t\tcreators.push(creatorAddressToCreator[creatorAddress]);\n\t\t}\n\t\telse{\n\t\t\t(creatorAddressToCreator[creatorAddress]).contractAddr.push(contractAddress);\n\t\t\t(creatorAddressToCreator[creatorAddress]).src.push(ipfsHashSrc);\n\t\t\t(creatorAddressToCreator[creatorAddress]).abi.push(ipfsHashAbi);\n\t\t\t(creatorAddressToCreator[creatorAddress]).contractCount ++;\n\t\t\tcontractAddressToCreator[contractAddress] = creatorAddressToCreator[creatorAddress];\n\t\t\tcontractAddressToSrc[contractAddress] = ipfsHashSrc;\n\t\t\tcontractAddressToAbi[contractAddress] = ipfsHashAbi;\n\t\t}\n\t\ttotalContracts ++;\n\n\t}\n\n\t//Returns one of either name, bio or display image URL depending on the field parameter\n\t//Commented because EVM cannot return dynamically sized items\n\n\t// function getCreatorInfoFromAddress (address creator, string field) returns(bytes32) { \n\t// \trequire(creatorToContract[creator] != 0); //Check if the creator has a contract stored in the mapping\n\t// \trequire(keccak256(field) != keccak256(\"\"));\n\t// \taddress _cAddr = creatorToContract[creator];\n\t// \tExampleERC721 _c;\n\t// \t_c = ExampleERC721(_cAddr);\n\n\t// \tif((keccak256(field) == keccak256(\"name\"))||(keccak256(field) == keccak256(\"Name\"))){\n\t// \t\treturn(_c.getCreatorName());\n\t// \t}\n\t// \telse if((keccak256(field) == keccak256(\"bio\"))||(keccak256(field) == keccak256(\"Bio\"))){\n\t// \t\treturn(_c.getCreatorBio());\n\t// \t}\n\t// \telse if((keccak256(field) == keccak256(\"displayImage\"))||(keccak256(field) == keccak256(\"DisplayImage\"))){\n\t// \t\treturn(_c.getCreatorDisplayImage());\n\t// \t}\n\t// \telse{\n\t// \t\treturn(\"\");\n\t// \t}\t\n\t// }\n\n\t//Returns n number of random contract addresses in an array. It will not return two contracts from the same creator. Pass in n as an input. \n\t//WARNING: ONLY WORKS PROPERLY ONCE RIGHT NOW\n\tfunction getRandomContractAddress(uint256 n) returns(address[]) {\n\t\tuint256 neededCount;\n\t\tuint256 generatedCount = 0;\n\t\tuint256 random;\n\t\taddress iterationAddress;\n\t\taddress[] randomAddresses;\n\n\t\tCreator iterationCreator;\n\n\n\t\t// if(totalCreators>=n){\n\t\t// \tneededCount = n;\n\t\t// \twhile(generatedCount < neededCount){\n\t\t// \t\trandom = rand(0,totalCreators-1);\n\t\t// \t\tCreator iterationCreator = creators[n];\n\t\t// \t\trandom = rand(0,iterationCreator.contractCount);\n\t\t// \t\tif(creatorAddressToIncludedFlag[iterationCreator.walletAddr] == false){\n\t\t// \t\t\tif(iterationCreator.hasContract){\n\t\t// \t\t\t\trandomAddresses.push(iterationCreator.contractAddr[random]);\n\t\t// \t\t\t\tgeneratedCount++;\n\t\t// \t\t\t\tcreatorAddressToIncludedFlag[iterationCreator.walletAddr] = true;\n\t\t// \t\t\t}\n\t\t// \t\t}\n\t\t// \t}\n\t\t// }\n\t\t//else{\n\t\t\t//neededCount = totalCreators;\n\t\t\tneededCount = n; //temp\n\t\t\tfor(uint i = 0; i < neededCount; i++){\n\t\t\t\titerationCreator = creators[i];\n\t\t\t\tif(iterationCreator.hasContract){\n\t\t\t\t\t//random = rand(0,iterationCreator.contractCount);\n\t\t\t\t\trandomAddresses.push(iterationCreator.contractAddr[0]);\n\t\t\t\t}\n\t\t\t}\n\t\t//}\n\t\treturn(randomAddresses);\n\t\t//TODO: SET ALL INCLUDE FLAGS TO FALSE\n\t}\n\n\t//Returns a string containing the IPFS hash of the source code of a contract. Pass the contract address you want to query the source code of.\n\tfunction getSourceHashFromContract (address contractAddr) returns(string) {\n\t\t//require(contractAddressToCreator[contractAddr].hasContract);\n\t\treturn(contractAddressToSrc[contractAddr]);\n\t}\n\n\tfunction getAbiHashFromContract (address contractAddr) returns(string) {\n\t\t//require(contractAddressToCreator[contractAddr].hasContract);\n\t\treturn(contractAddressToAbi[contractAddr]);\n\t}\n\t\n\n\n\t//Generate a random uint256 within the range [lowerBound,upperBound]\n\tfunction rand(uint256 lowerBound, uint256 upperBound) private returns (uint256){\n\t\tuint256 seedInt = uint(seedHash)/2;\n\t\tseedInt += now;\n\t\treturn(uint(sha256(seedInt))%(upperBound-lowerBound)+lowerBound+1);\n\t}\n\n}\n\n/**\n * The ExampleERC721 abstract contract\n */\ncontract ExampleERC721 {\n\tfunction getCreatorAddress() returns(address);\n\tfunction getCreatorName() returns(string);\n\tfunction getCreatorBio() returns(string);\n\tfunction getCreatorDisplayImage() returns(string);\n}\n",
  "sourcePath": "/home/linkuri267/Documents/wtc/gratus/contracts/main.sol",
  "compiler": {
    "name": "solc",
    "version": "0.4.19+commit.c4cbbb05.Emscripten.clang"
  },
  "schemaVersion": "1.0.1",
  "updatedAt": "2018-02-18T19:05:24.846Z"
}